:020000040800F2
:10000000D807002045010008950A00088B09000860
:10001000910A0008D5010008271B00080000000015
:100020000000000000000000000000006D17000844
:10003000D1030008000000001D0B00088118000813
:100040005F0100085F0100085F0100085F01000810
:100050005F0100085F0100085F0100085F01000800
:100060005F0100085F0100085F0100085F010008F0
:100070005F0100085F0100085F0100085F010008E0
:100080005F0100085F0100085F0100085F010008D0
:100090005F0100085F0100085F0100085F010008C0
:1000A0005F0100085F0100085F0100085F010008B0
:1000B0005F0100085F0100085F0100085F010008A0
:1000C0005F0100085F0100085F0100085F01000890
:1000D0005F010008E51800085F0100085F010008E3
:1000E0005F0100085F0100085F0100085F01000870
:1000F0005F0100085F0100085F0100085F01000860
:100100005F010008CD0D00085F0100085F010008D5
:100110005F0100085F0100085F0100085F0100083F
:100120005F0100085F0100085F0100085F0100082F
:10013000DFF80CD000F018F800480047D91B000881
:10014000D80700200648804706480047FEE7FEE73C
:10015000FEE7FEE7FEE7FEE7FEE7FEE7FEE7FEE777
:100160008518000831010008064C074D06E0E068DC
:1001700040F0010394E8070098471034AC42F6D3EE
:10018000FFF7DAFF681F0008881F000830B52A242F
:100190004FF0C0452C80C0F30F240D4D2C80C4B20D
:1001A0002C80C1F30F242C80CCB22C802B2465072B
:1001B0002C80C2F30F24064D2C80D4B22C80C3F3C4
:1001C0000F242C80DCB22C802C24E5062C8030BD42
:1001D0000000026000BFFEE770B500254FF48034D8
:1001E00004E0802000F0DEFD00B103E0201EA4F159
:1001F0000104F6D100BF0CB9032070BD40F2FF50DE
:1002000000F090FD2846F8E770B5044605E0154873
:10021000456B05F0450000B100E0F8E700BF0420A1
:1002200000F0C0FD20B1042000F07CFD032070BD73
:10023000012000F0B7FD20B1012000F073FD012086
:10024000F5E708480069A04201D01020EFE740F22E
:10025000FF50044988630846406908210840C0B23D
:10026000E5E700000080014070B500264FF48035BE
:1002700005E01148446B04F0450000B103E0281E7E
:10028000A5F10105F5D100BF15B104F0040028B1B6
:100290000326042000F046FD304670BD012000F02A
:1002A00081FD18B10126012000F03CFD40F2FF5015
:1002B00000F038FD3046F0E70080014010B505E061
:1002C0000B48446B04F0450000B100E0F8E700BFC4
:1002D000042000F067FD20B1042000F023FD03207E
:1002E00010BD40F2FF5000F01DFD0020F8E70000B7
:1002F000008001402DE9F04105460E464FF0000810
:1003000005E01F48476B07F0450000B100E0F8E743
:1003100000BF042000F046FD28B1042000F002FDDB
:100320000320BDE8F081012000F03CFD20B1012058
:1003300000F0F8FC0120F4E711480069A84201D060
:100340001020EEE740F2FF5000F0ECFC0C4844694E
:1003500004F4604018B9200C30804046E1E704F412
:10036000005008B11320DCE704F4804008B11020ED
:10037000D7E704F4004008B10F20D2E74046D0E7A9
:100380000080014070B500264FF4803505E00F482D
:10039000446B04F0450000B103E0281EA5F10105FF
:1003A000F5D100BF15B104F0040028B103260420E4
:1003B00000F0B8FC304670BD04F0400018B10026D3
:1003C000402000F0AFFC3046F5E70000008001401F
:1003D0007047000070B5044640F23F130022EF2141
:1003E0001046FFF7D3FE00250AE0002604E0A00631
:1003F000000E05490880761CB6F5707FF7D36D1C9A
:10040000F02DF2D370BD00000000026070B504460C
:1004100040F23F130022EF211046FFF7B7FE0026FF
:1004200026E000250EE0A006000E13490880A00675
:10043000000E0880A006000E0880002008800880BA
:1004400008806D1C782DEED300250EE000200A49AF
:10045000088008800880A006000E0880A006000E14
:100460000880A006000E08806D1C782DEED3761C47
:10047000A02ED6D370BD00000000026000B597B07A
:10048000002001900290012003900020049005902C
:10049000069007900890099008200A9010200B9071
:1004A00000200C900E900F9010904FF480501190FF
:1004B000002012901390149001A81590169008A88F
:1004C00000F020F80121002000F002F817B000BD74
:1004D00051B18200A2F1C042126842F001038200D1
:1004E000A2F1C042136009E08200A2F1C04212688A
:1004F000034B1A408300A3F1C0431A607047000009
:10050000FEFF0F00D0E901121143C26811430269D6
:1005100011434269114382691143C2691143026A5E
:100520001143426A1143826A1143C26A1143026B4A
:10053000114302689200A2F1C0421160816808294B
:100540000BD101688900A1F1C041096841F0400266
:1005500001688900A1F1C0410A60416B0968426BE2
:10056000526841EA0211426B926841EA0221426BF1
:10057000928941EA0241426B128A41EA0251426B7E
:10058000127D41EA0261426B926911430268521C7A
:100590009200A2F1C0421160C16AB1F5804F1BD137
:1005A000816B0968826B526841EA0211826B926822
:1005B00041EA0221826B128A41EA0251826B127D6A
:1005C00041EA0261826B9269114302689200A2F1D2
:1005D000C042C2F8041107E06FF070420168890060
:1005E000A1F1C041C1F80421704700002DE9FC4190
:1005F00007460D46002600240020009001900820A8
:100600005B49086010204860402088600020C86076
:100610004FF480600861084600F0FAFB1020FFF7F5
:10062000F3FD044614B12046BDE8FC815148008822
:1006300000044F490860372048604020886000204F
:10064000C8604FF480600861084600F0E1FB372085
:10065000FFF7DAFD04460CB12046E5E74FF0FF3026
:100660004549086008204860302088600220C86042
:100670000020086101204861084600F069FB002065
:100680003B49086033204860402088600020C860F3
:100690004FF480600861084600F0BAFB3320FFF792
:1006A000B3FD04460CB12046BEE70CE04FF4001049
:1006B00000F078FB38B100F0A5FB4DF82600761C61
:1006C000022E00D306E02D48406B40F22A6108401C
:1006D0000028EBD000BF082000F064FB20B1082008
:1006E00000F020FB04209FE7022000F05BFB20B11C
:1006F000022000F017FB022096E7202000F052FBBA
:1007000020B1202000F00EFB06208DE74FF4007092
:1007100000F048FB28B14FF4007000F003FB072005
:1007200082E740F2FF5000F0FDFA009800060099C1
:1007300001F47F4140EA0120009901F47F0140EA81
:100740001120009940EA1160686001980006019943
:1007500001F47F4140EA0120019901F47F0140EA60
:100760001120019940EA1160286020465CE70000F2
:1007700030010020380000204401002000800140AA
:1007800008B540F20110ADF8000010208DF803000C
:1007900003208DF802006946314800F06BF84FF4F1
:1007A0007040ADF8000010208DF8030003208DF894
:1007B000020069462B4800F05DF80120ADF800000A
:1007C00010208DF8030003208DF8020069462648AA
:1007D00000F050F84FF44050ADF8000010208DF8B4
:1007E000030003208DF802006946204800F042F81B
:1007F0000220ADF8000010208DF8030003208DF8D2
:10080000020069461A4800F035F84020ADF80000B3
:1008100003208DF8020004208DF803006946134878
:1008200000F028F84CF6B370ADF8000003208DF806
:10083000020018208DF8030069460C4800F01AF8F1
:100840004FF68070ADF8000003208DF802001820EC
:100850008DF803006946064800F00CF808BD00005A
:1008600000080140000C014000100140001401404C
:10087000001801402DE9F041024600250026002025
:1008800000230024002791F803C00CF00F0591F815
:1008900003C00CF0100CBCF1000F03D091F802C0A3
:1008A0004CEA050591F800C0BCF1000F31D0146886
:1008B00000202BE04FF0010C0CFA00F3B1F800C05F
:1008C0000CEA03069E4220D183004FF00F0C0CFA75
:1008D00003F7BC4305FA03FC4CEA040491F803C097
:1008E000BCF1280F06D14FF0010C0CFA00FCC2F845
:1008F00014C00AE091F803C0BCF1480F05D14FF0D5
:10090000010C0CFA00FCC2F810C0401C0828D1D31E
:100910001460B1F800C0BCF1FF0F34DD5468002052
:100920002EE000F1080C4FF0010808FA0CF3B1F8C2
:1009300000C00CEA03069E4221D183004FF00F0C49
:100940000CFA03F7BC4305FA03FC4CEA040491F8E3
:1009500003C0BCF1280F05D100F1080C08FA0CF80F
:10096000C2F8148091F803C0BCF1480F07D100F120
:10097000080C4FF0010808FA0CF8C2F81080401C6F
:100980000828CED35460BDE8F08100BFFEE7000028
:10099000FE204FF0C0410880EF20088036200880FC
:1009A00048202D4908803A204FF0C0410880662039
:1009B00029490880E8204FF0C041088012202649CC
:1009C000088022200880E320410708800120224976
:1009D000088004200880A5204FF0C04108804020F6
:1009E0001D4908800880A4204FF0C04108804420A1
:1009F000194908800880AB20410708800820164963
:100A00000880AA204FF0C041088088201249088041
:100A10000880AE204FF0C04108800B200E490880AE
:100A2000AC20C106088000200B490880AF204FF0A1
:100A3000C0410880772008490880AD204FF0C041B0
:100A4000088077200449088011204FF0C0410880B9
:100A500029200880704700000000026010B54FF4A4
:100A600080500A490860142001F090F84FF480503B
:100A70000649091D0860142001F088F84FF48050E1
:100A800002490860782001F081F810BD101401407F
:100A900000BFFEE77047000070B5002100230F2261
:100AA000C47804B3154C246804F4E064C4F5E0642D
:100AB000210AC1F10403CA40447804FA03F184789E
:100AC0001440214309010E4C0678A155047804F026
:100AD0001F050124AC4005786D11AD0005F1E0253E
:100AE000C5F8004109E0047804F01F050124AC407A
:100AF000044D0678761145F8264070BD0CED00E0F7
:100B000000E400E080E100E002490143024A116094
:100B1000704700000000FA050CED00E0704700008F
:100B200029B1064A52690243044B5A6104E0034A60
:100B300052698243014B5A61704700000010024025
:100B400029B1064AD2690243044BDA6104E0034A40
:100B5000D2698243014BDA61704700000010024005
:100B600029B1064A92690243044B9A6104E0034AA0
:100B700092698243014B9A61704700000010024065
:100B800010B500F07FFE01210846FFF7E9FF0121C3
:100B90000220FFF7D5FF012144F27C00FFF7E0FFC0
:100BA00010BD000030B500210022002400232D4D8F
:100BB0006D6805F00C0121B1042905D0082923D165
:100BC00005E0294D056022E0274D05601FE0254D19
:100BD0006D6805F47012234D6D6805F480340225AC
:100BE00005EB92421CB9214D554305600BE01D4DAC
:100BF0006D6805F400351DB11C4D5543056002E0DC
:100C0000194D5543056002E0174D056000BF00BF58
:100C1000144D6D6805F0F0010909154D6B5C056810
:100C2000DD4045600F4D6D6805F4E061090A104D27
:100C30006B5C4568DD4085600A4D6D6805F4605168
:100C4000C90A0B4D6B5C4568DD40C560054D6D689C
:100C500005F44041890B074D6B5CC568B5FBF3F5A6
:100C6000056130BD0010024000127A0000093D000D
:100C700014000020240000207CB50546002400203C
:100C80000090019000260DB1022600E000262248C7
:100C9000406900F0007008B10E207CBD1F49098832
:100CA00088B26946FFF7A2FC04460CB12046F4E77F
:100CB000019800F4802060B31848008800041849A7
:100CC000086037204860402088600020C8604FF4EA
:100CD00080600861084600F09BF83720FFF794FA1F
:100CE00004460CB12046D8E70D48066006200C49A2
:100CF0004860402088600020C8604FF48060086130
:100D0000084600F085F80620FFF77EFA04462046E4
:100D1000C3E72520C1E70000008001403800002023
:100D200030010020014988637047000000800140C5
:100D30000149086070470000A00030420146034AA4
:100D4000506820F0FF000843506070470080014069
:100D500000210A4B02685A6242689A621A46D16AB6
:100D600021F0F701D0E902231A4303691A434369CA
:100D70001A431143014AD1627047000000800140CC
:100D800000200649086048608860C8604862886240
:100D9000C862034888630020C86370470080014030
:100DA000FF07C00001460020034A526B0A400AB107
:100DB000012000E0002070470080014002480068E8
:100DC00000F00300704700000080014010B500F003
:100DD0000BFC10BD00210A4A516847F6FF6291439F
:100DE000027D83681A4343681A43C3681A43036841
:100DF0001A4303691A431143014A516070470000C6
:100E00000080014001480068704700008080014078
:100E10000021094B02689A601A46D1686FF30A01F3
:100E2000D0E901231A43C3681A4303691A431143E3
:100E3000014AD160704700000080014005490968FF
:100E400021F00301034A1160114609680143116052
:100E5000704700000080014070B504460025164828
:100E60000078032801D1272070BD1348007838B1DD
:100E700011480078012803D00F480078022818D1C3
:100E8000022C01D32720EFE7E0B2FFF7F5FE05467D
:100E90007DB90A48406820F4C050084948600846B7
:100EA0004068A1B240EAC120044948600846406851
:100EB00048602846D8E70000340000200080014048
:100EC000F0B5014600200022BE4B1B7881F8563059
:100ED000BD4B1B88A1F85430BC4B1B681A0E9309FC
:100EE0000B70C2F383034B7002F003038B70B74B9C
:100EF0001B68C3F30742CA70B44B1B88C3F30722B5
:100F00000A71B24B1A784A715B681A0E1301CB80D2
:100F1000AE4B5B68C3F30742CB8843EA1213CB8026
:100F200002F00F030B72A94B9B88C3F30722D3096E
:100F30004B72C2F380138B72C2F34013CB72C2F3B5
:100F400000130B7300234B739E4B1B783BB19D4BDF
:100F50001B78012B03D09B4B1B78032B4FD193079E
:100F60001B0D0B61994B1A790B6943EA82030B61E4
:100F7000964B9B681A0E0B6943EA92130B61C2F3FE
:100F8000C2030B7502F007034B75904B9B68C3F3CC
:100F9000074253098B75C2F38203CB7593075B0F2E
:100FA0000B768A4B1B89C3F307220B7E43EAD213CD
:100FB0000B760B695B1C0024C1E912340B7E9B1C71
:100FC000012404FA03F3DC17D1E91256A5FB037CD4
:100FD00006FB03C305FB0433C1E912730C7A01233A
:100FE000A3400B650024D1E912650B6DA6FB037CC1
:100FF00005FB03C306FB0433C1E912732EE0714BFA
:101000001B78022B2AD1714B1A7993069B0A0B612C
:101010006E4B9B681A0E0B6943EA02230B616B4B04
:101020009B68C3F307420B6913430B61674B1B8932
:10103000C3F307220B695B1C4FF40074A3FB044647
:101040004FF480630025A4FB037C06FB03C304FB71
:101050000533C1E912734FF400730B65C2F38013BB
:1010600001F8193F93065B0E4B70584B1A7A4B7878
:1010700043EAD2134B7002F07F038B70534BDB6853
:101080001A0ED309CB70C2F341130B71C2F3820362
:101090004B7193071B0F8B714C4BDB68C3F30742FB
:1010A0008B7943EA92138B71C2F34013CB71002307
:1010B0000B7202F001034B72444B9B89C3F307226E
:1010C000D3098B72C2F38013CB72C2F340130B733C
:1010D000C2F300134B73C2F381038B7302F003035B
:1010E000CB733A4B1A7B53080B7401234B74384B68
:1010F0001B681A0ECA741939354B1B68C3F30742B3
:101100001402CC85324B1B88C3F30722CB8D1343CB
:10111000CB852F4B1A7814060C635B681A0E0B6B89
:1011200043EA02440C632A4B5B68C3F307420B6B30
:1011300043EA02240C63264B9B88C3F307220B6B04
:1011400013430B63224B1A7934235A54204B9B6868
:101150001A0E35235A541E4B9B68C3F307421406DC
:101160008C631B4B1B89C3F307228B6B43EA02443E
:101170008C63174B1A7A8B6B43EA02248C63144BF3
:10118000DB681A0E8B6B13438B63114BDB68C3F365
:1011900007423C235B5C43EA12143C235C54130774
:1011A0001C0DCC870A4B9B89C3F30722CB8F1343BB
:1011B000CB87074B1A7B540840235C5401244123FE
:1011C0005C54F0BD34000020380000205C01002099
:1011D0006C0100207CB50025002401213020FFF7A0
:1011E000BFFC012140F20240FFF79AFC4FF4F85097
:1011F000ADF8000018208DF8030003208DF80200E0
:1012000069462948FFF736FB0420ADF80000182096
:101210008DF8030003208DF8020069462348FFF78C
:1012200029FBFFF7ADFD31208DF8040000208DF87B
:1012300005008DF8060001208DF8070001A8FFF7D2
:101240002BFC00F0E3F8044614B900F035F804462E
:101250001CB91748FFF734FE044634B91449B1F8F5
:101260005410080400F05EFA04461CB90120FFF790
:10127000F3FD04461CB10F480078032812D10C4836
:1012800090F8560020B10A4890F85600012801D184
:101290000A2500E004252846FFF750FD002000F055
:1012A00059FA044620467CBD00100140001401405C
:1012B000800100203400002038B500240120009077
:1012C000FFF77CFD08B9252038BD4A48007804287E
:1012D00021D000204849086002204860C020886072
:1012E0000020C8604FF4806008610846FFF790FD59
:1012F000FEF7BAFF04460CB12046E5E73F484069D7
:101300003F4908603D48806948603C48C069886042
:101310003A48006AC8603748007858B135480078C4
:10132000012807D033480078062803D031480078D8
:10133000022816D100203049086003204860402070
:1013400088600020C8604FF4806008610846FFF79D
:101350005FFD69460320FEF7CDFF04460CB1204631
:10136000B2E724480078032816D1BDF80000000435
:101370002149086003204860402088600020C86040
:101380004FF4806008610846FFF742FDFEF76CFFEE
:1013900004460CB1204697E716480078042827D069
:1013A000BDF8000017490860BDF8000000041249AC
:1013B000086009204860C02088600020C8604FF4A1
:1013C000806008610846FFF723FDFEF74DFF0446E5
:1013D0000CB1204678E7094840690B490860074886
:1013E000806948600548C06988600448006AC86030
:1013F000002069E734000020300100200080014017
:101400006C010020380000205C0100202DE9F0472D
:101410000027002400260025A046A146B2206C49E2
:1014200008750020086048608860C8600861084648
:10143000FFF7D0FC0320FFF701FD0120FFF778FC48
:1014400000BF12E000206349086048608860C860FF
:101450004FF4806008610846FFF7DAFCFEF7BCFE37
:10146000044604B903E0781CC7B24A2FEADB00BF88
:1014700014B12046BDE8F0874FF4D5705549086097
:1014800008204860402088600020C8604FF48060D9
:1014900008610846FFF7BCFCFEF774FF044624B958
:1014A00001204D4908704FF08049002049490860EB
:1014B00037204860402088600020C8604FF480607A
:1014C00008610846FFF7A4FC3720FEF79DFE04469E
:1014D000002C4BD134E000203E49086037204860A2
:1014E000402088600020C8604FF480600861084692
:1014F000FFF78EFC3720FEF787FE04460CB120462E
:10150000B8E7364849EA00003249086029204860B7
:10151000402088600020C8604FF480600861084661
:10152000FFF776FCFEF7CAFE04460CB12046A1E7A1
:101530002B484669012080EAD67080F001086D1CB6
:10154000B8F1000F03D14FF6FF708542C3D34FF6B9
:10155000FF70854202D31B2420468BE706F08040B3
:10156000061E32D002201C4908702EE01CE01D48E7
:101570001849086001204860402088600020C86049
:101580004FF4806008610846FFF742FCFEF796FEC4
:1015900004460CB120466DE711484669012080EAF7
:1015A000D67080F001086D1CB8F1000F03D14FF622
:1015B000FF708542DBD34FF6FF70854202D31B24B8
:1015C000204657E7032004490870204652E70000F0
:1015D000180100203001002034000020000010809D
:1015E000008001400080FF8010B54948406B00F446
:1015F000807070B347480078012814D10020464914
:1016000008600C204860402088600020C8604FF4CB
:10161000806008610846FFF7FBFB0C20FEF7F4FD35
:101620003E49087002E000203C4908703848806B51
:1016300040F48070364988630846C06B4CF23A31FA
:1016400088433349C863012035490870334800781E
:1016500010BDFFE70220FFF7A5FB68B10220FFF7EE
:1016600061FB2B48C06B4CF23A3188432849C86370
:1016700002202A490870EBE70820FFF793FB68B1C6
:101680000820FFF74FFB2248C06B4CF23A318843E9
:101690001F49C863042021490870D9E72020FFF7BB
:1016A00081FB68B12020FFF73DFB1948C06B4CF26D
:1016B0003A3188431649C863062018490870C7E7BD
:1016C0001020FFF76FFB68B11020FFF72BFB1048CD
:1016D000C06B4CF23A3188430D49C86305200F496D
:1016E0000870B5E74FF40070FFF75CFB70B14FF482
:1016F0000070FFF717FB0648C06B4CF23A31884385
:101700000349C863072005490870A1E700209FE747
:10171000008001403D000020300100203E000020FC
:101720003F00002010B5044609480460072008491E
:101730004860402088600020C8604FF480600861E5
:101740000846FFF765FB0720FEF75EFD10BD0000B1
:101750003001002001460020012900D011B9024BC0
:10176000197000E0262070473C000020704710B53B
:1017700000F002F810BD00000CB5002001900090B0
:101780003348006840F480303149086000BF304879
:10179000006800F4003000900198401C019000980F
:1017A00018B90198B0F5A06FF1D12948006800F48C
:1017B000003010B10120009001E00020009000985E
:1017C000012843D12348006840F0100021490860F7
:1017D0000846006820F0030008600846006840F0F2
:1017E000020008601A484068194948600846406885
:1017F00048600846406840F4806048600846406899
:1018000020F47C1048600846406840F4E8104860C6
:101810000846006840F08070086000BF0C4800680F
:1018200000F000700028F9D00948406820F003005B
:10183000074948600846406840F00200486000BF21
:101840000348406800F00C000828F9D10CBD0000E6
:101850000010024000200240042808D14FF0E0218F
:10186000096941F004014FF0E022116107E04FF0F7
:10187000E021096921F004014FF0E0221161704775
:101880007047000010B51348006840F0010011498E
:10189000086008464068104908400E4948600846FC
:1018A00000680E4908400B4908600846006820F4AB
:1018B000802008600846406820F4FE0048604FF42D
:1018C0001F008860FFF753FF4FF000600449086075
:1018D00010BD0000001002400000FFF8FFFFF6FE00
:1018E00008ED00E010B540F225511D4800F057F812
:1018F00010B31B4800F00EF9C4B21A48008800F477
:101900000040C8B91748008800F4804060B10A2C34
:1019100003D000201349088020E01248008840F4DA
:1019200000401049088019E00D2C06D10D480088B0
:1019300040F480400B49088010E00A480088C0F35A
:101940000D0009490C5407480088401C05490880CF
:1019500008460088C72801DD0020088010BD00006F
:1019600000380140300000204F00002021B1828962
:1019700042F40052828104E082894DF6FF731A40DE
:101980008281704702460020B1F5007F00D100BF80
:1019900013880B400BB1012000E00020704770B5A8
:1019A0000246002400230025002040F66A16B142BA
:1019B00000D100BFC1F3421501F01F03012606FA52
:1019C00003F3012D02D19689334006E0022D02D1A6
:1019D000168A334001E0968A33400C12012606FA3B
:1019E00004F41688344013B10CB1012000E000204B
:1019F00070BDF0B50346002400260025002040F607
:101A00006A17B94200D100BF1846C1F3421401F071
:101A10001F06012707FA06F5012C01D10C3004E05E
:101A2000022C01D1103000E014301AB107682F43A6
:101A3000076002E00768AF430760F0BD2DE9F0479B
:101A400086B005460E460024A24600BFA1460027E8
:101A5000B08900B100BF2F462C8A4CF6FF700440BD
:101A6000F08804432C82AC894EF6F3100440B08811
:101A700031890843718908430443AC81AC8A4FF62D
:101A8000FF400440B0890443AC8201A8FFF78AF804
:101A90001F48874202D1DDF810A001E0DDF80CA05C
:101AA000A88900F4004040B10AEBCA0000EB0A101C
:101AB00031684900B0FBF1F807E00AEBCA0000EB1F
:101AC0000A1031688900B0FBF1F86420B8FBF0F02F
:101AD00004012009642101FB1089A88900F4004059
:101AE00040B1322000EBC900B0FBF1F000F007007C
:101AF000044308E0322000EB09106421B0FBF1F050
:101B000000F00F0004432C8106B0BDE8F087000010
:101B10000038014001468888C0F308007047C1F3CF
:101B200008028280704700BFFEE702E008C8121F6B
:101B300008C1002AFAD170477047002001E001C1B6
:101B4000121F002AFBD1704710B56FF00400FFF799
:101B500083FE0A4800680A49B0FBF1F009490870A1
:101B60000846007800EB4001C1EBC0104FF6FF7152
:101B700001EAC0000449088010BD000000000020F8
:101B800000127A00280000202A0000200146114A95
:101B900012884A434FF0E0235A6100229A611A46A4
:101BA000126942F001021A6100BF4FF0E022106991
:101BB00000F001021AB100F48032002AF5D04FF093
:101BC000E022126922F001024FF0E0231A610022A4
:101BD0009A6170472A0000204FF000090025002478
:101BE0000027A046FEF7CCFFFFF7AEFF4FF4A06042
:101BF000FEF78AFF4FF4964000F066F9FEF7C0FD4D
:101C00000120AA490860AA49486101210002FEF7A3
:101C100087FFFEF733FCFFF7DDFAFEF71FFFFEF745
:101C2000B7FE1521A348FFF77AFF3EE1A2480088DE
:101C300000F400400028F8D09F480088C0F30D064B
:101C40004FF00009002448E09C48005D2F2809DD82
:101C50009A48005D3A2805DA9848005D3038C7B2E6
:101C6000964807559548005D402809DD9348005D7A
:101C7000472805DA9148005D3738C7B28F480755C5
:101C8000601C84B28D48005D2F280BDD8B48005D01
:101C90003A2807DA8948005D303800F0FF088748A5
:101CA00000F804808548005D40280BDD8348005D16
:101CB000472807DA8148005D373800F0FF087F4881
:101CC00000F8048008EB07107D4901F80900601C4A
:101CD00084B209F101001FFA80F9B442B4DB002498
:101CE0000DE07648015D7348FFF719FF00BF402102
:101CF0007048FFF747FE0128F9D1601C84B2B44256
:101D0000EFDB00206C4908806D48407806287CD2C3
:101D1000DFE800F003117F92A4B6002506E0E81C7E
:101D20006749085C67490880681C85B26448807808
:101D3000A842F4DCB8E06248C078012806D0022846
:101D400015D003282AD0042860D141E05C4880786F
:101D50004FF0C041088001205449091D08605948CE
:101D60000088574988700120504908604FE0544866
:101D700080784FF0C041088001204C49091D08605F
:101D8000504800884E4988704E48008888704D48F9
:101D90000088C87001204549086038E048488078CC
:101DA0004FF0C041088001204049091D08604548A6
:101DB00000884349887043480088887041480088FB
:101DC000C8704048008808710120384908601EE04A
:101DD0003B4880784FF0C041088001203349091DFD
:101DE000086038480088364988703648008888700E
:101DF00034480088C870334800880871314800882A
:101E0000487101202949086001E04CE000BF00BF93
:101E10004AE02B4880784FF0C0410880002506E05A
:101E2000281D2749085C27490880681C85B224487A
:101E3000C078A842F4DC37E021488078402803D1FC
:101E40001F49C878FEF7C6FA1D488078202804D1BB
:101E50001B49C9784800FEF7BDFA25E0184880788C
:101E6000402803D11649C878FEF7D0FA1448807884
:101E7000202804D11249C9784800FEF7C7FA13E0B8
:101E80000F4880784FF0C0410880002506E0281DEB
:101E90000B49085C0B490880681C85B20848C0786B
:101EA000A842F4DC00E000BF00BFBFE6100801401C
:101EB0000010014000380140300000204F00002099
:101EC000440000200000026010B586B004460121E5
:101ED00044F20400FEF744FE4FF40070ADF8140025
:101EE00003208DF8160018208DF8170005A91C484E
:101EF000FEF7C0FC4FF48060ADF8140004208DF8AC
:101F0000170005A91648FEF7B5FC25208DF800003E
:101F100003208DF801008DF8020001208DF80300E8
:101F20006846FEF7B9FD01940020ADF80800ADF851
:101F30000A00ADF80C00ADF810000C20ADF80E0052
:101F400001A90848FFF77AFD012240F22551054812
:101F5000FFF74FFD01210348FFF708FD06B010BD54
:101F60000008014000380140881F000800000020E0
:101F7000440000002A1B0008CC1F00084400002079
:101F8000940700003A1B000800A24A040000000069
:101F90000000000001020304060708090000000019
:101FA00001020304010203040607080902040608EB
:101FB0000000000000000000000000000000000021
:0C1FC00000000000010000000000000014
:0400000508000131BD
:00000001FF
